:020000040800F2
:10000000D8980024A5030008B7940008297A0008AE
:10001000B59400087915000893AE000800000000B0
:10002000000000000000000000000000E5020008E1
:100030008D250008000000004103000839A00008D9
:10004000BF030008BF030008BF030008BF03000888
:10005000BF030008BF030008BF030008BF03000878
:10006000BF030008BF030008BF030008191F0008F2
:10007000251F0008311F0008BF030008BF03000848
:10008000BF030008BF030008BF030008DD26000807
:1000900049270008BF030008BF030008BF0300088A
:1000A000BF030008BF030008BF030008BF03000828
:1000B000B9A10008BF030008BF030008BF03000880
:1000C000BF030008BF030008BF030008BF03000808
:1000D000059F0008BF030008BF030008BF03000816
:1000E000BF030008BF03000800000000BF030008B2
:1000F000BF030008BF030008BF030008BF030008D8
:10010000BF030008BF030008BF030008BF030008C7
:10011000BF030008BF030008BF030008BF030008B7
:10012000BF030008BF030008BF030008BF030008A7
:10013000BF030008BF030008BF030008BF03000897
:1001400000000000000000000000000000000000AF
:10015000BF030008BF030008BF030008BF03000877
:10016000BF030008BF030008BF030008BF03000867
:10017000BF030008BF030008BF0300080000000021
:10018000BF030008BF030008B5A50008BF030008AF
:10019000BF030008BF030008BF030008BF03000837
:1001A000BF030008BF030008BF03000800000000F1
:1001B000BF030008BF030008BF030008BF03000817
:1001C000BF030008BF03000800000000000000009B
:1001D0000000000000000000BF0300080000000055
:1001E000000000000000000000000000000000000F
:1001F0000000000000000000BF030008BF0300086B
:10020000BF030008BF03000800000000BF03000890
:10021000BF030008BF030008BF030008BF030008B6
:10022000BF03000800000000BF030008000000003A
:10023000BF030008BF03000800000000BF03000860
:10024000BF030008BF030008BF030008BF03000886
:10025000BF030008BF030008BF030008BF03000876
:10026000BF030008BF030008BF030008BF03000866
:10027000BF030008BF030008BF0300080000000020
:10028000BF030008BF030008BF030008BF03000846
:1002900000000000BF030008BF03000800000000CA
:1002A00000000000BF030008BF030008BF030008F0
:1002B000BF030008BF030008BF030008552700085C
:1002C000BF030008BF030008BF030008DFF810D019
:1002D00000F0C4FA00480047A1DA0008AFF300803C
:1002E000D89800242C4B19680868B0E8F04F80F3C8
:1002F0000988BFF36F8F4FF0000080F311887047BB
:100300000000000008480068006880F308884FF08B
:10031000000080F3148862B661B6BFF34F8FBFF35D
:100320006F8F00DF00BF00BF08ED00E0DFF80C00BA
:10033000016841F470010160704700BF88ED00E082
:10034000EFF30980BFF36F8F134B1A681EF0100F85
:1003500008BF20ED108A20E9F04F106009B44FF07B
:10036000500080F31188BFF34F8FBFF36F8F0EF0F3
:1003700009F94FF0000080F3118809BC196808687A
:10038000B0E8F04F1EF0100F08BFB0EC108A80F3F9
:100390000988BFF36F8F704780010024EFF3058059
:1003A000704700000648804706480047FEE7FEE722
:1003B000FEE7FEE7FEE7FEE7FEE7FEE7FEE7FEE715
:1003C000F9A00008CD0200082DE9F05F05460020E5
:1003D00092469B4688460646814640241BE02846B6
:1003E00041464746224600F070F853465A46C01A26
:1003F000914110D311461846224600F057F82D1AA5
:1004000067EB01084F4622460120002100F04EF81C
:1004100017EB00094E41201EA4F10104DFDC484621
:1004200031462A464346BDE8F09F40EA01039B0758
:1004300003D009E008C9121F08C0042AFAD203E059
:1004400011F8013B00F8013B521EF9D27047D2B2BD
:1004500001E000F8012B491EFBD270470022F6E7AD
:1004600010B513460A4604461946FFF7F0FF20462A
:1004700010BD421C10F8011B0029FBD1801A7047E7
:1004800030B50B46014600202022012409E021FA64
:1004900002F59D4205D303FA02F5491B04FA02F561
:1004A0002844151EA2F10102F1DC30BD202A04DB34
:1004B000203A00FA02F1002070479140C2F1200377
:1004C00020FA03F3194390407047202A04DB203AB6
:1004D00021FA02F00021704721FA02F3D040C2F164
:1004E000200291400843194670472DE9FE4F80468F
:1004F00081EA0300C00F0C46009021F0004123F078
:100500000045B8EB0200A94105D24046214690467D
:100510001C460B46024623F00040104347D0270DEF
:10052000C7F30A00C3F30A510290401A0190402811
:100530006BDAC3F3130040F4801B0098924620B19D
:100540000023D2EB030A63EB0B0B01985946C0F171
:1005500040025046FFF7AAFF06460D465046594650
:10056000019A00F08DF910EB08006141002487EA40
:10057000115284EAE7731A4340D0009A62B3019A99
:10058000012A4FEA075215DC001B61EB02014FF014
:10059000004202EA0752CDE90042001C41F58011F9
:1005A00032462B4600F08DF903B0BDE8F08F40468F
:1005B0002146F9E7001B61EB0201001C41F58013A5
:1005C00000185B412018A2F5001747EB030140EA31
:1005D000D570B6196D4111E06D084FEA360645EA4F
:1005E000C0754FEA0752001B61EB0201001C41F588
:1005F000801149084FEA30000019514132462B461C
:1006000003B0BDE8F04F00F04DB900980122400062
:100610000023D0EB020263EBE073009821464FEA1F
:10062000E074B8EB000061EB0401E9E783F00043FC
:100630005BE781F0004158E72DE9FE4F81EA0304B2
:1006400004F0004421F0004100944FF0000B23F02F
:10065000004350EA01045ED052EA03045BD0C3F3C6
:100660000A54C1F30A552C44A4F2F3340194A0FBBC
:100670000254C1F3130141F48011C3F3130343F493
:10068000801301FB024400FB034E840A970A44EAEC
:10069000815447EA8357A4FB076802958D0A05FB3E
:1006A00007854FEA932C04FB0C542705029D4FEA63
:1006B000065847EA1637B5EB08056EEB070C870EB0
:1006C000920E47EA811742EA8312A7FB0201B6EBBA
:1006D0000B0164EB00042B0D43EA0C335E1844EB72
:1006E0001C50DA465146E7FB0201C5F313044FEAFA
:1006F0000B3343EA14534FEA0432019C43EA0603E6
:10070000A4F10C040294009CCDE900B400F0D9F8E7
:1007100003B0BDE8F08F00200146F9E72DE9F04D68
:1007200081EA030404F0004B21F0004514464FF029
:10073000000A23F0004150EA050220D054EA0102E9
:100740001DD0C5F30A570246C5F31303C1F31300C6
:10075000C1F30A5640F4801543F48013A7EB060852
:10076000101BD64608F2FD3873EB050002D308F1E2
:10077000010801E092185B41B8F1000F03DA002094
:100780000146BDE8F08D00204FF4801106468446F6
:100790000EE0171B73EB050705D3121B63EB050374
:1007A00006434CEA010C49084FEA300092185B41BD
:1007B00050EA0107EDD152EA030012D082EA0400A8
:1007C00083EA0501084305D0101BAB4106D2012284
:1007D000002306E000224FF0004302E06FF0010228
:1007E00053101AEB06004CEB085110EB0A0041EBDA
:1007F0000B01BDE8F04D00F055B8C1F30A52C1F34A
:10080000130140F2FF3341F480119A4202DA0020D2
:100810000146704740F233439A42A2F2334202DC6F
:100820005242FFF752BEFFF741BE000030B5041E32
:1008300071F1000404DB4FF00044404264EB01011D
:10084000141E73F1000405DB1C464FF000435242B6
:1008500063EB0403994208BF904230BD064C074D3C
:1008600006E0E06840F0010394E807009847103480
:10087000AC42F6D3FFF72EFDE0F3000800F40008C9
:10088000202A06DBCB17203A41FA02F043EAE07354
:1008900006E041FA02F3D040C2F120029140084341
:1008A0001946704710B5141E73F1000408DA401C95
:1008B00041F1000192185B411A4301D120F001007F
:1008C00010BD2DE9F04D92469B4611B1B1FA81F26F
:1008D00002E0B0FA80F220329046FFF7E7FD0446CE
:1008E0000F4640EA0A0041EA0B0153465A460843C4
:1008F00013D0114653EA010019D0C8F14002504606
:10090000FFF7E3FD05460E46504659464246FFF7BF
:10091000CDFD084305D0012004E020463946BDE85E
:10092000F08D0020054346EAE0762C4337430A98D1
:100930006305E40AA0EB08000022FD0A44EA4754DC
:100940000A3002D500200146E9E701051019694186
:10095000DDE9084500196941BDE8F04DA2E770B531
:100960008C1810F8015B15F0070301D110F8013B5A
:100970002A1106D110F8012B03E010F8016B01F8E1
:10098000016B5B1EF9D12B0705D40023521E0DD439
:1009900001F8013BFAE710F8013BCB1A921C03E087
:1009A00013F8015B01F8015B521EF9D5A142D8D3BF
:1009B000002070BD9FED201AB5EE002A00EE012A3E
:1009C0009FED1E1ABDEEC20AB5EEC02AF1EE10FA76
:1009D00010EE100AB8BF013800EE100A0020B8EE81
:1009E000C00A32EE400A9FED162A20EE010ABCEE44
:1009F000C01A11EE101A30EE021AB0EB512F18BFC8
:100A0000002102EE101A4EF6DC3000FE010AC0F69C
:100A10000000B8EE422A00EB810090ED011A30EEA2
:100A2000420AB7EE002A32EE402A20EE010A90ED8B
:100A3000001A02EE010A704783F9223E00000044CA
:100A4000000000C4B0B503880D88AB4256D145887C
:100A50004C88A54252D11488A3424FD15488A54254
:100A60004CD105FB03FC436800254968B5EB9C0F9E
:100A7000506831D04FEA9C02524200BF93ED000A09
:100A800091ED001A30EE010A03F1100E01F110048D
:100A900000F1100580ED000A013293ED010A91ED9D
:100AA000011A30EE010A80ED010A93ED020A91ED80
:100AB000021A30EE010A80ED020A93ED030A91ED6D
:100AC000031A30EE010A7346214680ED030A2846D8
:100AD000D4D12146284673461CF003020CD0524262
:100AE000B3EC010AB1EC011A30EE010A051D013226
:100AF00080ED000A2846F3D1002000E0FD2040B23E
:100B0000B0BD018042804360704700002DE9F04F86
:100B10008BB0B0F800B0B0F802E0F34540F051817E
:100B20000B88FD229B4540F04D814F88BB4240F031
:100B30004981BBF1000F436800F029816FF0030089
:100B40004C6800EB8B08CDF81CE0002700934FF0B9
:100B50007E5906945E462046BBEB060009D0B900DC
:100B60002046FFF77BFC00200130874204F104049B
:100B7000FAD104F1040AC4F80090751E10D0A8EB55
:100B800087015046FFF76AFC012054460130864237
:100B900004F10404FAD1002D07F101072E46DBD140
:100BA000BBF1000F009BDDF81CE000F0F08004209A
:100BB000CDF814B000EB8E0001901846ABF10106A1
:100BC00003EB8E044FEA8E021D1DCEF100010023BF
:100BD00008919FED800A7746814600BF5B4580F013
:100BE000F58003FB0EF0B0EE403A09EB80010A916C
:100BF00091ED001A0699B0EE414A01EB8000099090
:100C00002146304606E000BF91ED004A0138B0EEC3
:100C1000423A1144B5EEC04AF1EE10FA0ADDB4EEE4
:100C2000C34AB0EE442AF1EE10FAD8BFB0EE432A20
:100C300009E000BFB1EE442AB4EEC23AF1EE10FA78
:100C400001DBB0EE432A0028DED1B5EE402AF1EEFA
:100C500010FA00F0BB80B0EEC13AB4EE423AF1EEC9
:100C600010FA1CBFD84310EB0B0004D0002000BFCB
:100C700001308642FCD1B5EE401AF1EE10FA00F0D8
:100C8000A580CDE90346AEEB030C0A99BCF1010F38
:100C90004FF07E5008600AD00120294691ED002ACD
:100CA00082EE012A01308742A1EC012AF6D1DDE96A
:100CB000080100BF91ED002A82EE012A0C1D0130CF
:100CC00081ED002A2146F5D1ACF1010B05994FF0D9
:100CD0000008DDF818A04846CDF80890984505D1E1
:100CE00000EB8C060AEB8E0A33E000BF90ED001A91
:100CF0000A9CB0EE413ABBF1000F94ED002A01EEE0
:100D0000423A00F1040680ED003A15D0012000249B
:100D100006EB040905EB040E99ED002A9EED003A5E
:100D200001EE432A0130874204F1040489ED002AD0
:100D3000EED12644DDF81CE0DDE908049AED002A36
:100D400094ED003A01EE432A04340130AAEC012A62
:100D5000F4D106EB8300013908F10108BED1DDF8BA
:100D60000890013F049E09F10409039C03F101036B
:100D70000198A6F101060444DDF814B005447FF49F
:100D80002DAFB5EE401A009BF1EE10FA20D10EFB0C
:100D90000BF1002000294FF000020BD093ED000A68
:100DA000B5EE400AF1EE10FA04D101328A4203F1A5
:100DB0000403F3D38A4208BF6FF004000BB0BDE810
:100DC000F08FFD2250B20BB0BDE8F08FFB22F9E7A7
:100DD0000022F7E7000000002DE9F04F88B0B0F8DE
:100DE00002C00B889C4540F08880B0F800E0138872
:100DF0009E4540F08280B1F80290538899457CD19D
:100E00004FEA9C04476804FB09F049680CF00305AD
:100E1000029101EB0010019000202CF00303A0EBE5
:100E20009C0107EB830607914FEA89035168C5F1DE
:100E3000000A00919FED330ACDE9039CCDE9050E30
:100E40000099CE4601EB8008DDE901BC002CB0EE34
:100E5000401AE146384627D0624607993846B0EE38
:100E6000401A00BF92ED002A90ED003A03EE021AFC
:100E70001A4490ED014A92ED002A04EE021A1A4437
:100E800090ED025A92ED002A05EE021A1A4490EDF6
:100E9000036A92ED002A06EE021A013100F11000F9
:100EA0001A44DFD1D946304655B1514690ED002A5B
:100EB00099ED003A02EE031A043001319944F5D15C
:100EC00008F1040088ED001ABEF1010E0CF1040CCB
:100ED0000BF1040B8046B9D1DDF80C900598DDF8D4
:100EE00010C04844DDF818E007EB8C07BEF1010E96
:100EF00006EB8C06A2D1002000E0FD2040B208B035
:100F0000BDE8F08F00000000B0B503880D88AB424B
:100F100056D145884C88A54252D11488A3424FD15E
:100F20005488A5424CD105FB03FC43680025496861
:100F3000B5EB9C0F506831D04FEA9C02524200BF83
:100F400093ED000A91ED001A30EE410A03F1100E04
:100F500001F1100400F1100580ED000A013293ED5B
:100F6000010A91ED011A30EE410A80ED010A93ED7C
:100F7000020A91ED021A30EE410A80ED020A93ED69
:100F8000030A91ED031A30EE410A7346214680EDC3
:100F9000030A2846D4D12146284673461CF0030292
:100FA0000CD05242B3EC010AB1EC011A30EE410A06
:100FB000051D013280ED000A2846F3D1002000E033
:100FC000FD2040B2B0BD00002DE9F04F83B0028893
:100FD0004B889A424DD144880B889C4249D10023CA
:100FE000D1F804804FEA940C416804F0030ECDF868
:100FF0000080A3EB94040294140196000194CEF1B6
:10100000000B4046BCF1000F1ED04746029C00BFBB
:1010100008683D4638603744486807EB0609A85120
:1010200001F11000D1F808A0013447F806A009EB3F
:101030000607C968374449F806100146E8D1019906
:101040006C18014603E000BF009800EB8304BEF17A
:10105000000F07D05D4600BF51F8040B013520603A
:101060003444F9D10133013A08F10408CAD100200F
:1010700000E0FD2040B203B0BDE8F08F9FED1F1AE5
:1010800020EE010A9FED1F2ABDEEC01AB5EEC00A80
:10109000F1EE10FA11EE100AB8BF013801EE100A95
:1010A0000020B8EEC11A30EE410A9FED151A20EE6D
:1010B000010ABCEEC01A11EE101A30EE021AB0EBA3
:1010C000512F18BF002102EE101A4EF6DC3000FE40
:1010D000010AC0F60000B8EE422A00EB810090ED54
:1010E000011A30EE420AB7EE002A32EE402A20EE14
:1010F000010A90ED001A02EE010A704783F9223EC0
:1011000000000044000000C401220248114603F020
:1011100065BD00000008025800220248012103F0CA
:101120005DBD00000008025801220248082103F0BA
:1011300055BD00000008025800220248082103F0B3
:101140004DBD00000008025870B50446FFF7E4FFEB
:10115000922000F081F985490622122000F05EF904
:10116000FFF7D2FF814E814D1C3EF078C0B3687806
:101170002978000200B2084300EE100A96ED031A27
:10118000D4ED0C0AB8EEC00A20EE011A94ED080A5C
:1011900051EE000AC4ED000AE878A978000200B216
:1011A000084300EE900A94ED0D1AF8EEE01AD6ED21
:1011B000030A61EEA01A11EE801A84ED011A687913
:1011C0002979000200B20843708101EE100AB8EEDE
:1011D000C11A61EE200A20EE800A84ED020A34E092
:1011E000FFE768782978000200B2084300EE100A91
:1011F000D6ED030AB8EEC00A60EE200A94ED080AA4
:1012000060EE800AC4ED000AE878A978000200B216
:10121000084300EE900AB8EEE01AD6ED030A21EE7C
:10122000201A21EE001A84ED011A6879297900024A
:1012300000B20843708101EE100AB8EEC11A61EEE7
:10124000200A20EE800A84ED020AFFF775FF474965
:101250000822002000F0E2F8FFF766FF28780F2848
:101260005DD1F07880B3E878A978000200B2084335
:1012700000EE100AD4ED090AB8EEC01A96ED040A81
:1012800051EE000AC4ED030A68792979000200B220
:10129000084300EE900A94ED0A1AF8EEE00A10EE08
:1012A000801A84ED041AE879A979000200B2084393
:1012B000708100EE900A94ED0B1AF8EEE00A10EE41
:1012C000801A84ED051A2AE0FFE7E878A978000281
:1012D00000B2084300EE100AF8EEC00A96ED040AC8
:1012E00060EE800AC4ED030A68792979000200B231
:1012F000084300EE900AF8EEE00A60EE800AC4EDC2
:10130000040AE879A979000200B20843708100EE6E
:10131000900AF8EEE00A20EE800A84ED050AFFF755
:10132000FBFEA22000F098F810490222222000F0D3
:1013300075F8FFF7E9FE28786978C00040EA511097
:101340007081B0F5806F02DBA0F500607081B6F9A6
:101350000A00B4EE001A00EE100AF8EEC00AB3EE6E
:10136000070A00EE810A84ED070A70BD4C000024D4
:1013700070B50D461D49086000201D4CA0700BF093
:1013800019FAA1780843A0700BF0A8FAA1780843D5
:10139000A0701DB1174800F0F1F824E015489FED4A
:1013A000160A80ED090A9FED150A80ED0A0A9FEDE5
:1013B000140A80ED0B0A9FED130A80ED0C0A9FEDD5
:1013C000120A80ED0D0A9FED110A80ED0E0A9FEDC5
:1013D000100A80ED0F0A9FED0F0A80ED080A9FEDBD
:1013E0000E0A80ED060AA07870BD00007800002487
:1013F0003000002424090024F0A032BAB9F3AFBAB7
:10140000B1EFBBBA0B6F993E2A98933D00000000E4
:101410007A841D410F187F3F0000204270B50D46B1
:10142000144640F0800000F017F806E0552000F068
:1014300013F805F8010B641EE4B2002CF6D170BD60
:1014400010B50C4640F0800000F006F8552000F082
:1014500003F8207010BD000001B582B04FF47A701F
:101460000123009001AA044802A9006805F046FB88
:101470009DF804000EBD00007800002410B50C4655
:10148000FFF7EAFF2046BDE81040FFF7E5BFB6EEE4
:10149000002A92ED020AB0EE421AD2ED030A00EEE3
:1014A000401AD0ED001AD0ED013A00EEE01A21EE1C
:1014B000213A92ED011AD2ED001A61EE002A41EEB6
:1014C000E02A61EE200A41EE800A02EEA33A90ED96
:1014D000020AF0EE002A00EE803A23EE220A81EDA5
:1014E000000A92ED010AD2ED021A92ED001AD2ED35
:1014F000030A20EE213AD0ED003A90ED014A01EEC8
:10150000203A23EE233AF0EE423A40EE403A40EEE3
:10151000E03A61EEA00A41EE400A03EE843A90ED13
:10152000020A00EE803A23EE220A81ED010AD2ED92
:10153000010AD2ED031A92ED020A92ED001A20EE92
:10154000A13A60EE211AD0ED003A00EEE02A01EE59
:10155000403A41EE201A90ED011A00EE402A23EEA7
:10156000233A90ED020A01EE813A02EE003A23EEB0
:10157000220A81ED020A7047FEE700002DE9F04FD4
:1015800004462DED048B89B000200790089000F0F0
:101590006FFFFE4E86ED050ADFF8F49304AFDFF827
:1015A000F4A30DF104084FF07C5BDFEDFB9A00F033
:1015B0005FFFD6ED050AF94930EE600A10EE100A19
:1015C000884214DD9FEDF60A84ED090A9FEDF50AC5
:1015D00084ED0A0A9FEDF40A84ED0B0A9FEDF30AED
:1015E00084ED0F0A9FEDF20A84ED060A87E19FED74
:1015F000F10A00F0FFFE9FEDF00A84ED0F0A84ED82
:10160000090A84ED0A0A84ED0B0A0025F8E0FFF7C9
:1016100083FD9220FFF720FF0622122007A9FFF783
:10162000FDFEFFF771FD9DF81D009DF81C100002E6
:1016300000B2084300EE100AD6ED030AB8EEC00A65
:1016400020EE201A84ED001A9DF81F009DF81E1050
:10165000000200B2084300EE100AD6ED030AB8EE0D
:10166000C00A20EE200A84ED010A9DF821009DF8B1
:101670002010000200B2084301EE900AF8EEE11AD1
:1016800061EEA00AC4ED020A21EE011A00EE001A72
:1016900000EEA01AB0EE410A0AF0F9FBB0EE408A63
:1016A00094ED0F0A30EE080A84ED0F0AFFF744FDAF
:1016B0000822002007A9FFF7B1FEFFF735FD9DF8CE
:1016C0001C000F2840D19DF81F009DF81E1000023D
:1016D00000B2084300EE100AF8EEC00A96ED040AC4
:1016E00060EE800AC4ED030A94ED091A71EE200A37
:1016F000C4ED090A9DF821009DF82010000200B2F7
:10170000084300EE900AF8EEE00A60EE800AC4EDAD
:10171000040A94ED0A1A71EE200AC4ED0A0A9DF833
:1017200023009DF82210000200B2084300EE900A48
:10173000F8EEE00A20EE800A84ED050AD4ED0B0AEB
:1017400030EE800A84ED0B0A002D7DD0B4EEE88ADD
:10175000F1EE10FA01DDF0EE488AB4EEC98AF1EE3E
:1017600010FA01D2B0EE489A002004EB800191ED0E
:10177000030A07EB8001D1ED000AB4EEE00AF1EEB6
:1017800010FA01DD81ED000A08EB8001D1ED000ABD
:10179000B4EEE00AF1EE10FA01D281ED000A401C2D
:1017A000C0B20328E1D338EEC90A86ED060A00204C
:1017B00007EB8001D1ED000A08EB800191ED001AE2
:1017C00009EB800170EEC10AC1ED000A401CC0B2F5
:1017D0000328EDD310EE100A584515DCD9F80000A7
:1017E000504511DCD9F8040050450DDCD9F808004B
:1017F000504509DCB0EE690A00F0FCFD6D1CADB28D
:10180000F0888542FFF403AFF288D4ED0F0A00EEB2
:10181000102AB8EE400A80EE801A84ED0F1A0020DC
:1018200000EE102A04EB8001B8EE400AD1ED090A5F
:1018300080EE801A81ED091A401CC0B20328EFD354
:10184000FFF76AFCA22000E063E0FFF705FE02223A
:10185000222007A9FFF7E2FDFFF756FC9DF81C00C8
:101860009DF81D10C00040EA5110B0F5806F02DBFA
:10187000A0F5006000B200EE100AB4EE001AF8EE17
:10188000C00AB3EE070A00EE810A84ED060AB088AA
:10189000401CB080B06958453FF789AE94ED0F0AFF
:1018A000DFED460A30EE600A0BF070FE10EE100A13
:1018B0005845F1DCD9F800005045EDDCD9F80400BA
:1018C0005045E9DCD9F808005045E5DC94ED090AFB
:1018D0000BF05CFE10EE100A394DA842DCDC94EDF2
:1018E0000A0A0BF053FE10EE100AA842D4DC94ED65
:1018F0000B0A0BF04BFE10EE100AA842CCDC94ED64
:101900000F0ADFED300A80EE801A84ED081A0025F8
:101910009EE0F0EE488AB0EE489A002004EB800189
:1019200091ED030A07EB800181ED000A08EB8001CD
:1019300081ED000A401CC0B20328EFD333E7FFF764
:10194000EBFB9220FFF788FD0622122007A9FFF784
:1019500065FDFFF7D9FB9DF81D009DF81C100002E6
:1019600000B2084300EE100AD6ED030AB8EEC00A32
:1019700060EE200A94ED080A60EE800AC4ED000AC9
:1019800094ED0C1ADFED101A20E000003000002466
:10199000180900249A99193E6F12033A0000204159
:1019A000F0A032BAB9F3AFBAB1EFBBBA7A841D4135
:1019B000000020420AD7A33B00000000CDCC1C4110
:1019C0000AD7233CC3F51C41CDCC4C3F21EE211A54
:1019D0009FED242A00EE821A84ED0C1A9DF81F0058
:1019E0009DF81E10000200B2084300EE900AB8EE07
:1019F000E01AD6ED030A21EE201A21EE001A84ED3A
:101A0000011AD4ED0D2A62EEA12A41EE022AC4ED9C
:101A10000D2A9DF821009DF82010000200B2084315
:101A200001EE100AB8EEC11A61EE200A20EE800A1B
:101A300084ED020AD4ED0E0A60EEA10A40EE020A1D
:101A4000C4ED0E0AB0EE690A00F0D4FC6D1CADB214
:101A500030898542FFF473AF09B0BDEC048BBDE85B
:101A6000F08F0000CDCC4C3E00F078F8FCE7000091
:101A700070B504460D4616462DED028B0022062158
:101A800004F198000BF0E0FE0022082104F1E400CC
:101A90000BF0DAFE00224FF4007104F5C0700CF078
:101AA000A1FD284609F08AFE9FED278A274A0021DA
:101AB000B7EE080AF0EE480A304607F037FF234A2F
:101AC000002124480C32F0EE480A9FED210A07F06D
:101AD0002DFF0025B4F8E420B4F8E8101E480BF000
:101AE0009BFC01200CF0C6F86D1C0A2DF2DB0025D2
:101AF000B4F89820B4F89C1017480BF08DFC012026
:101B00000CF0B8F86D1C0A2DF2DB0025B4F8E420C7
:101B1000B4F8E81010480BF01FFD01200CF0AAF8F3
:101B20006D1C0A2DF2DB0025B4F89820B4F89C1047
:101B300009480BF011FD01200CF09CF86D1C0A2DDA
:101B4000F2DBBDEC028B70BD0000000024EB00084E
:101B50000000A04208870024BC0400242DED028B65
:101B600082B0504C02E001200CF084F894F8AC00F4
:101B70000028F8D04C4A4D48A2F1C801FFF778FF81
:101B8000494E4A4C9FED4A8A4A4D4749454A474883
:101B9000C8390BF055F9474B4349424A2033434873
:101BA000C83900960AF05AFF94F84802012809D172
:101BB00094F87C11012905D194F8CC1111B194F855
:101BC0007012C1B318B194F870020128DDD1B4F8D5
:101BD000E8103948B0EE482AF0EE481AB0EE481A3C
:101BE000F0EE480AB0EE480A0BF098FF68680CF077
:101BF00041F8B4F89C103048B0EE482AF0EE481A8C
:101C0000B0EE481AF0EE480AB0EE480A0BF086FF34
:101C100068680CF02FF8B4F890112748B0EE482A05
:101C2000F0EE481AB0EE481AF0EE480AB0EE480A54
:101C30000BF0DAFFA9E7FFE71B4FB4F8E810C83F45
:101C40001D48F0EE481A97ED222AB0EE481AF0EE41
:101C5000480AB0EE480A0BF061FF68680CF00AF819
:101C6000B4F89C10144897ED212AF0EE481AB0EE13
:101C7000481AF0EE480AB0EE480A0BF04FFF6868C9
:101C80000BF0F8FFB4F890110B4894ED612AF0EED8
:101C9000481AB0EE481AF0EE480AB0EE480A0BF0C7
:101CA000A3FF72E750870024C086002464890024C3
:101CB00000000000E8010024BC04002400F074F8D7
:101CC000FCE7000070B504460D4616462DED028B6C
:101CD0000022204606210BF0B7FD0022082104F166
:101CE0004C000BF0B1FD00224FF4007104F5987028
:101CF0000CF078FC284609F061FD9FED268A264A03
:101D00000021B7EE080AF0EE480A304607F00EFE52
:101D1000214A002122480C32F0EE480A9FED1F0AAA
:101D200007F004FE0025B4F84C20B4F850101D480C
:101D30000BF072FB01200BF09DFF6D1C0A2DF2DBF6
:101D400000252288A18817480BF066FB01200BF0C4
:101D500091FF6D1C0A2DF4DB0025B4F84C20B4F87B
:101D6000501010480BF0F8FB01200BF083FF6D1CA6
:101D70000A2DF2DB00252288A1880A480BF0ECFB33
:101D800001200BF077FF6D1C0A2DF4DBBDEC028BFC
:101D900070BD0000000000003CEB00080000A04205
:101DA000248C00241C0400242DED028B82B0534CA3
:101DB00002E001200BF05EFF94F8AC000028F8D0A0
:101DC0004F4AA2F5507101F1C800FFF77BFF4D4A61
:101DD000A2F14801A1F1480007F0D6FD484EA6F552
:101DE0001E749FED498A494D4949444A01F1C80092
:101DF0000BF0CCFA454B4649404A283301F1C80064
:101E000000960BF043F894F84802012809D194F8A1
:101E10007C11012905D194F8CC1111B194F87012FC
:101E2000B9B318B194F870020128DDD1B4F850109C
:101E30003848B0EE482AF0EE481AB0EE481AF0EEF4
:101E4000480AB0EE480A0BF069FEE8680BF012FF92
:101E5000A1883048B0EE482AF0EE481AB0EE481A91
:101E6000F0EE480AB0EE480A0BF058FEE8680BF0B6
:101E700001FFB4F840112748B0EE482AF0EE481AA6
:101E8000B0EE481AF0EE480AB0EE480A0BF0ACFE8D
:101E9000AAE7FFE71E4FB4F850101E4897ED222A1C
:101EA000F0EE481AB0EE481AF0EE480AB0EE480AD2
:101EB0000BF034FEE8680BF0DDFEA188154897EDC5
:101EC000212AF0EE481AB0EE481AF0EE480AB0EEB9
:101ED000480A0BF023FEE8680BF0CCFEB4F8401182
:101EE0000C4894ED4D2AF0EE481AB0EE481AF0EE88
:101EF000480AB0EE480A0BF077FE75E750870024D9
:101F0000DC8B0024FC8C0024000000005402002420
:101F10009C8800241C040024014801F04BB80000F8
:101F200084060024014801F045B80000FC060024A6
:101F3000014801F03FB800005408002410B52C4AB5
:101F4000016891423AD02A4A1832914236D0284A42
:101F50003032914232D0264A483291422ED0244A21
:101F6000603291422AD0224A7832914226D0204AC9
:101F70009032914222D01E4AA83291421ED01D4A70
:101F800091421BD01B4A1832914217D0194A303265
:101F9000914213D0174A483291420FD0154A60320D
:101FA00091420BD0134A7832914207D0114A9032B5
:101FB000914203D00F4AA832914214D1CAB2103ACA
:101FC0001823B2FBF3F20C4C02F00703E35CC36589
:101FD000032A04D96FF30901091D816506E06FF337
:101FE0000901816502E021F0FF018165806D10BD6E
:101FF0001000024010040240F8E9000810B5016822
:102000000123224CCAB2A1421BD0204C1434A1425D
:1020100017D01E4C2834A14213D01C4C3C34A14292
:102020000FD01A4C5034A1420BD0184C6434A1424A
:1020300007D0164C7834A14203D0144C8C34A14202
:102040000FD1083A1421B2FBF1F1114A02EB8102DF
:1020500002660F4A8032426601F01F018B408366A0
:1020600010BD103A1824B2FBF4F20A4C2144A829FE
:1020700000D80832084901EB820101660649803127
:10208000416602F01F018B40836610BD0854025860
:1020900000580258F0FBFDBF000802400279521EB2
:1020A000072A31D8194B016899421BD0174B1433BA
:1020B000994217D0154B2833994213D0134B3C3318
:1020C00099420FD0114B503399420BD00F4B6433D0
:1020D000994207D00D4B7833994203D00B4B8C3388
:1020E000994207D10A4901EB8201C1660849403192
:1020F000016706E0074901EB8201C16605494031ED
:10210000016701219140416770470000085402585F
:102110000059025800090240014610B500208B69A1
:102120004FF0C0748A6A002B0ED0B3F5005F1AD04E
:1021300062B3012A2AD0022A28D0032A03D1C96A0D
:10214000C90100D5012010BD1AB1012A06D0022A0A
:10215000F9D1C96AC901F6D5012010BDC96AA142E9
:10216000FBD1012010BD52B1012A0AD0022A06D0AB
:10217000032AF7D1C96AA142F4D1012010BD012080
:1021800010BDC96AC901FBD5012010BD012010BDD9
:102190002DE9F04F856D8A4E894FDFF824C2A836AD
:1021A000DFF81C82DFF818920CF1180CDFF810A28F
:1021B00008F13008DFF808B209F1480904680AF1AB
:1021C000600A0BF1780BBC426DD064456BD044457E
:1021D00069D04C4567D0544565D05C4563D0DFF885
:1021E000E0E10EF1900E74455DD0B4425BD0DFF8B3
:1021F000D4E1744557D0DFF8CCE10EF1180E7445E8
:1022000051D0DFF8C0E10EF1300E74454BD0DFF84D
:10221000B4E10EF1480E744545D0DFF8A8E10EF1A7
:10222000600E74453FD0DFF89CE10EF1780E7445E6
:1022300039D0DFF890E10EF1900E744533D0DFF81D
:1022400084E10EF1A80E74452DD0DFF87CE17445D1
:1022500029D0DFF874E10EF1140E744523D0DFF8B5
:1022600068E10EF1280E74451DD0DFF85CE10EF137
:102270003C0E744517D0DFF850E10EF1500E744556
:1022800011D0DFF844E10EF1640E74450BD0DFF895
:1022900038E10EF1780E744505D0DFF82CE10EF12F
:1022A0008C0E744509D1D0E919E4CEF80440C46E0F
:1022B0001CB1D0E91CE4CEF804400468BC422ED026
:1022C00064452CD044452AD04C4528D0544526D0CE
:1022D0005C4524D03A4F9037BC4220D0B4421ED047
:1022E000384EB4421BD0374E1836B44217D0354E54
:1022F0003036B44213D0334E4836B4420FD0314E4C
:102300006036B4420BD02F4E7836B44207D02D4EF3
:102310009036B44203D02B4EA836B4421BD190F86D
:102320005C4004F01F063F24B440AC60046825689C
:1023300025F480252560046863608368402B05D000
:10234000036899600068C260BDE8F08F03689A6016
:102350000068C160F8E71C4EB4421BD01A4E143618
:10236000B44217D0184E2836B44213D0164E3C361D
:10237000B4420FD0144E5036B4420BD0124E6436D5
:10238000B44207D0104E7836B44203D00E4E8C368D
:10239000B442D9D190F85C4004F01F060124B44047
:1023A0006C60046863608368402B04D003689960A4
:1023B0000068C260C8E703689A600068C160C3E74C
:1023C00010000240100402400854025808B50748A3
:1023D00040680090064800990269914202D2C168A3
:1023E000491CC1600099016108BD0000001000E0B7
:1023F000D80300240A4841680A4AD2ED000A42681C
:10240000521AF8EE601A01EE102AB8EE411A60EE88
:10241000211AB4EEE11AF1EE10FAF0D37047000081
:10242000001000E0D803002400B52DED028B81B030
:102430000D49496800910168009A511A00EE101A7E
:102440000A49F8EE400A91ED000AB8EE400A80EE23
:10245000808A00990160FFF7B9FF01B0B0EE480A29
:10246000BDEC028B00BD0000001000E0D80300248A
:1024700010B500F043F80C489FED0C1A90ED000ADF
:102480008188C08800EE901AB8EE400AF8EE600A23
:1024900000EE810A00EE900A9FED051AF8EE600A40
:1024A00000EE810A10BD0000080400246F12833A78
:1024B000BD3786350D490A6842F080720A600C49C2
:1024C00000224A600B6843F001030B60094948434E
:1024D000094908604FF47A73B0FBF3F34B60054B86
:1024E000B0FBF3F08860CA6070470000FCED00E0CC
:1024F000001000E040420F00D80300242DE9F84FFF
:10250000204840680090FFF761FFDFF87C904FF0B3
:10251000FF334FF0000A00985146D9F80C20E2FB37
:10252000030104460D46C9E90E01D9F800B00023A5
:10253000204629465A46FDF747FF06460F463046D5
:10254000A0FB0B2107FB0B1106FB0A13A71A65EB77
:10255000030809F1300426600023D9F804604146DD
:1025600038463246FDF730FF80B2A0807043381AFB
:1025700068EB0A01D9F808200023FDF725FFE08069
:10258000BDE8F88F001000E0D80300247047B6EED5
:10259000002A92ED020AB0EE421AD2ED030A00EED2
:1025A000401AD0ED001AD0ED013A00EEE01A21EE0B
:1025B000213A92ED011AD2ED001A61EE002A41EEA5
:1025C000A02A61EE200A41EEC00A02EEA33A90ED85
:1025D000020AF0EE002A00EE803A23EE220A81ED94
:1025E000000A92ED010AD2ED021A92ED001AD2ED24
:1025F000030A20EE213AD0ED003A90ED014A01EEB7
:10260000603A23EE233AF0EE423A40EE403A40EE92
:10261000E03A61EEA00A41EE000A03EE843A90ED42
:10262000020A00EE803A23EE220A81ED010AD2ED81
:10263000010AD2ED031A92ED020A92ED001A20EE81
:10264000A13A60EE211AD0ED003A00EEE02A01EE48
:10265000003A41EE601A90ED011A00EE402A23EE96
:10266000233A90ED020A01EE813A02EE003A23EE9F
:10267000220A81ED020A704772B6FEE710B58AB0F1
:1026800000240294039402200490012005900694F3
:10269000079402A9104801F05AFC08B1FFF7ECFFBB
:1026A00002220D4800231146009401F094FC08B169
:1026B000FFF7E2FF08480022012101F0CFFB08B13B
:1026C000FFF7DAFF044802F05DF9002801D0FFF7B8
:1026D000D3FF0AB010BD00001C040024014801F023
:1026E0006FBD00001C04002410B58AB000240294C1
:1026F000012003900220049005900694079402A9FB
:10270000104801F024FC08B1FFF7B6FF02220D4883
:1027100000231146009401F05EFC08B1FFF7ACFF06
:1027200008480022102101F099FB08B1FFF7A4FF2F
:10273000044802F027F9002801D0FFF79DFF0AB0F6
:1027400010BD0000BC040024014801F039BD0000A8
:10275000BC040024014801F033BD00005C050024E6
:1027600030B5426B036853F8844F4FF6FC718C43CD
:1027700044EA82041C60036853F8844F058F24F4F4
:102780007F0444EA05441C60836B1A44036853F8D1
:10279000884F8C4344EA82041C60036853F8884FD6
:1027A000858F24F4FE0444EA05441C60C36B02EBED
:1027B0004302036853F8A04F8C4344EA82041C6030
:1027C000036853F8A04FB0F8405024F4FE0444EAE4
:1027D00005441C60D0E9103403FB0422036853F85D
:1027E000B04F8C4344EA82041C60036853F8B04F36
:1027F000B0F8485024F4FE0444EA05441C60D0E9D3
:10280000123403FB0422036853F8AC4F8C4344EAB0
:1028100082041C60D0E9143403FB0422036853F8DB
:10282000F04F8C4344EA82041C60036853F8F04F75
:10283000B0F8585024F47C1444EA05441C60836DBD
:1028400002EB4303026852F8C04F8C4344EA830111
:102850001160016851F8C02FB0F85C3022F47C128E
:1028600042EA03420A60016851F8C02F90F86030D4
:1028700022F07C5242EA03620A60416B224A02EB78
:102880008101C166826B01EB82020267C36B02EBBE
:10289000C3024267D0E91034634302EB83028267CC
:1028A000D0E91234634302EB8302C267D0E91434E7
:1028B000634302EB8302C0F88020836D02EBC30206
:1028C000C0F88420C46D836E5C4302EB8402C0F8C0
:1028D0008820046E5C4302EB8402C0F890200B4B0E
:1028E0009A4208D99830416841F0200141600321A3
:1028F0000170012030BD002200E004C1D0F890300A
:102900008B42FAD8002030BD00AC0040FCD3004020
:10291000F0B5D1E901650C692C430D68002E19D082
:1029200045F080452C4391F82070D1E90665354388
:102930004E6946EA07663543CE683543D0F8846071
:10294000806E584306EB80031C605D6008330020F6
:102950000C4E0FE044EA8544E5E71418155CE7786F
:1029600045EA0765A77864783F0447EA04242543CD
:1029700020C3001DCC6806EB144424788442ECD8B4
:10298000F0BD000000EA00082DE9F84F044602F00F
:102990002DF900905CB194F83500022809D0802010
:1029A0006065002084F834000120BDE8F88F012024
:1029B000FBE7D14ED04FD0491836DFF83C83303793
:1029C000DFF83493DFF830A308F14808DFF828B3C4
:1029D00009F1600920680AF1780A0BF1900B88422E
:1029E0002ED0B0422CD0B8422AD0404528D04845FD
:1029F00026D0504524D0584522D0BF4AA832904214
:102A00001ED0BE4A90421BD0BC4A1832904217D00A
:102A1000BA4A3032904213D0B84A483290420FD06E
:102A2000B64A603290420BD0B44A7832904207D016
:102A3000B24A9032904203D0B04AA83290420AD1B2
:102A4000026822F01E0202602068426922F08002C1
:102A50004261256804E0026822F00E0202602568E7
:102A6000206888424DD0B0424BD0B84249D0404552
:102A700047D0484545D0504543D0584541D09E4A5F
:102A8000A83290423DD09D4A90423AD09B4A18329B
:102A9000904236D0994A3032904232D0974A4832EA
:102AA00090422ED0954A603290422AD0934A783292
:102AB000904226D0914A9032904222D08F4AA8323A
:102AC00090421ED08E4A90421BD08D4A14329042C2
:102AD00017D08B4A2832904213D0894A3C32904218
:102AE0000FD0874A503290420BD0854A64329042D0
:102AF00007D0834A7832904203D0814A8C32904288
:102B000004D1206E026822F4807202607A49206843
:102B100088422ED0B0422CD0B8422AD0404528D08E
:102B2000484526D0504524D0584522D07249A83176
:102B300088421ED0714988421BD0704918318842A2
:102B400017D06E493031884213D06C4948318842E1
:102B50000FD06A49603188420BD068497831884289
:102B600007D066499031884203D06449A831884231
:102B700004D1016821F00101016013E0016821F036
:102B8000010101600EE002F031F80099401A0528B9
:102B900008D9202034342062032060700020207087
:102BA000012002E72868C007EDD1534A01212068BF
:102BB00090422ED0B0422CD0B8422AD0404528D0E6
:102BC000484526D0504524D0584522D04A4BA833FA
:102BD00098421ED0494B98421BD0484B183398421C
:102BE00017D0464B3033984213D0444B4833984269
:102BF0000FD0424B603398420BD0404B7833984211
:102C000007D03E4B9033984203D03C4BA8339842B8
:102C100008D1A06D94F85C3003F01F053F23AB4052
:102C2000836007E0A06D94F85C3003F01F0301FAA5
:102C300003F34360206890424DD0B0424BD0B8427D
:102C400049D0404547D0484545D0504543D05845E8
:102C500041D0294AA83290423DD0284A90423AD0E9
:102C6000264A1832904236D0244A3032904232D02E
:102C7000224A483290422ED0204A603290422AD0D6
:102C80001E4A7832904226D01C4A9032904222D07E
:102C90001A4AA83290421ED0194A90421BD0184AB4
:102CA0001432904217D0164A2832904213D0144A58
:102CB0003C3290420FD0124A503290420BD0104A10
:102CC0006432904207D00E4A7832904203D00C4AC8
:102CD0008C3290420BD1D4E919205060E06E30B1B3
:102CE000026822F480720260D4E91C2050603434FF
:102CF00061700020207058E610000240100402406D
:102D0000085402582DE9F05F002808D090F83510DB
:102D1000022906D0802141650120BDE8F09F0120F5
:102D2000FBE7A14AA04BA04C18329F4D30339E4E7A
:102D30004834DFF874B26035DFF870C27836DFF8F7
:102D40006C82DFF868920CF1300CDFF860A208F1B9
:102D50006008016809F17809944F0AF1900A594511
:102D600031D091422FD099422DD0A1422BD0A942EF
:102D700029D0B14227D0DFF830E20EF1900E714534
:102D800021D0DFF824E20EF1A80E71451BD0DFF848
:102D90001CE2AEF1180E714515D0B94213D0DFF820
:102DA0000CE20EF1180E71450DD061450BD0DFF825
:102DB000FCE10EF1480E714505D0414503D049456F
:102DC00001D0514537D14FF0040E80F835E0594518
:102DD00027D0914225D0994223D0A14221D0A942A7
:102DE0001FD0B1421DD070489030814219D06E483A
:102DF000A830814215D06D481838814211D0B942AF
:102E00000FD06A48183081420BD0614509D067481D
:102E10004830814205D0414503D0494501D0514554
:102E200004D1086820F001000860BAE0086820F0CA
:102E300001000860B5E0D1F800E02EF00E0EC1F8F8
:102E400000E00168DE46594531D091422FD09942C9
:102E50002DD0A1422BD0A94229D0B14227D0DFF8F2
:102E600048B10BF1900B594521D0DFF83CB10BF183
:102E7000A80B59451BD0DFF834B1ABF1180B5945FD
:102E800015D0B94213D0DFF824B10BF1180B594516
:102E90000DD061450BD0DFF814B10BF1480B59454B
:102EA00005D0414503D0494501D0514506D1D1F85F
:102EB00000B02BF0010BC1F800B005E0D1F800B074
:102EC0002BF0010BC1F800B001684FF0010B714508
:102ED00046D0914244D0994242D0A14240D0A9422A
:102EE0003ED0B1423CD0304A9032914238D02E4A46
:102EF000A832914234D02D4A183A914230D0B9428A
:102F00002ED02A4A183291422AD0614528D0274A29
:102F10004832914224D0414522D0494520D05145E4
:102F20001ED0234A91421BD0214A1432914217D01D
:102F30001F4A2832914213D01D4A3C3291420FD091
:102F40001B4A503291420BD0194A6432914207D049
:102F5000174A7832914203D0154A8C32914218D1E7
:102F6000016E0A6822F480720A60816D90F85C201C
:102F700002F01F020BFA02F24A60D0E919215160F7
:102F8000C16E31B10A6822F480720A60D0E91C2156
:102F9000516080F835B0002180F83410016D01B126
:102FA00088470020B9E600001000024028040240D3
:102FB000085402582DE9FF5F0446002001904FF4A9
:102FC0001651FD480068B0FBF1F00090A56D2E6829
:102FD0002968FA4FDFF8E4B3DFF8E083DFF8DC9329
:102FE0000BF1180BDFF8D4A308F13008206809F1C1
:102FF00048090AF1600AB8423BD05A46904238D09C
:10300000404536D0484534D0504532D0EB4A78322E
:1030100090422ED0E94A903290422AD0E74AA83214
:10302000904226D0E64A904223D0E54A1832904298
:103030001FD0E34B303398421BD0E14B48339842CA
:1030400017D0DFF87CC30CF1600C604511D0DFF8BD
:1030500070C30CF1780C60450BD0DFF864C30CF141
:10306000900C604505D0DFF858E30EF1A80E7045CE
:103070007ED194F85C10082301F01F0103FA01F2DD
:1030800032424BD0B84232D0584530D040452ED095
:1030900048452CD050452AD0C8497831884226D09E
:1030A000C6499031884222D0C449A83188421ED0F6
:1030B000C34988421BD0C2491831884217D0C04941
:1030C0003031884213D0BE49483188420FD0BC49C4
:1030D000603188420BD0BA497831884207D0B8496C
:1030E0009031884203D0B649A831884203D10168A3
:1030F00001F0040102E0016801F0080171B101680A
:1031000021F00401016094F85C0000F01F0003FA54
:1031100000F2AA60606D40F00100606594F85C0008
:10312000012100F01F008140314240D02068B842A8
:1031300034D0584532D0404530D048452ED0504547
:103140002CD09E4A7832904228D09C4A90329042AD
:1031500024D09A4AA832904220D0994A90421DD059
:10316000974A1832904219D0954A3032904200E086
:10317000D2E113D0924A483290420FD0904A603246
:1031800090420BD08E4A7832904207D08C4A9032CF
:10319000904203D08A4AA83290427DD1406910F013
:1031A000800F04D0A960606D40F00200606594F863
:1031B0005C00042100F01F00814031423ED02068B5
:1031C000B84232D0584530D040452ED048452CD05A
:1031D00050452AD0794A7832904226D0774A9032A8
:1031E000904222D0754AA83290421ED0744A904232
:1031F0001BD0734A1832904217D0714A3032904235
:1032000013D06F4A483290420FD06D4A60329042DC
:103210000BD06B4A7832904207D0694A9032904284
:1032200003D0674AA83290424ED1006810F0020FD6
:1032300004D0A960606D40F00400606594F85C0003
:10324000102100F01F008140314260D02068B84258
:1032500034D0584532D0404530D048452ED0504526
:103260002CD0564A7832904228D0544A903290421C
:1032700024D0524AA832904220D0514A90421DD0C8
:103280004F4A1832904219D04D4A3032904215D0F0
:103290004B4A4832904200E014E00FD0484A603276
:1032A00090420BD0464A7832904207D0444A90323E
:1032B000904203D0424AA832904207D1006800F001
:1032C000080006E0006872E70068B7E7006800F0F1
:1032D000040058B1A9602068016849030CD5006852
:1032E000000304D4216C09B1204688470FE0A16C8B
:1032F00069B1204688470AE00168C90503D401681E
:1033000021F008010160216C09B12046884794F83A
:103310005C00202100F01F00814031427BD02068FA
:10332000B84232D0584530D040452ED048452CD0F8
:1033300050452AD0214A7832904226D01F4A9032F6
:10334000904222D01D4AA83290421ED01C4A904280
:103350001BD01B4A1832904217D0194A3032904283
:1033600013D0174A483290420FD0154A603290422B
:103370000BD0134A7832904207D0114A90329042D3
:1033800003D00F4AA832904203D1006800F0100029
:1033900002E0006800F00200E8B3A96094F835008C
:1033A000042812D02068016849033DD50068000355
:1033B00035D4616C79B305E0280000241000024088
:1033C00010040240204688473FE02068016821F051
:1033D000160101602068416921F080014161206C83
:1033E00008B9A06C20B12068016821F008010160D3
:1033F00094F85C0000F01F013F208840A860012085
:1034000084F83500002084F83400216D002974D040
:1034100004B0204600E018E0BDE8F05F0847E16B2B
:1034200099B12046884710E00168C90509D40168B0
:1034300021F010010160012084F83500002084F89B
:103440003400E16B09B120468847606D002854D0F4
:10345000606DC00758D0042084F835002068B84259
:1034600031D058452FD040452DD048452BD0504520
:1034700029D0B749884226D0B5491831884222D090
:10348000B349303188421ED0B24988421BD0B1497D
:103490001831884217D0AF493031884213D0AD4936
:1034A000483188420FD0AB49603188420BD0A949DE
:1034B0007831884207D0A7499031884203D0A54986
:1034C000A831884204D1016821F00101016003E0C4
:1034D000016821F00101016021680198009A401CF7
:1034E0000190904202D80868C007F6D10868C0076A
:1034F00004D0032084F8350003E087E0012084F83D
:103500003500002084F83400E16C00297ED004B03E
:103510002046BDE8F05F08478F4EB0421BD08E4E6C
:103520001436B04217D08C4E2836B04213D08A4E93
:103530003C36B0420FD0884E5036B0420BD0864E4B
:103540006436B04207D0844E7836B04203D0824E03
:103550008C36B0425AD106684FF0040E94F85CB035
:103560000BF01F0B0EFA0BFE1EEA010FCDF80CE05C
:103570005ED05FEA467E5BD503986860300411D563
:10358000F00307D4A16C002940D004B02046BDE868
:10359000F05F0847216C002938D004B02046BDE810
:1035A000F05F0847B0063BD42068B8422DD0684988
:1035B0006039884229D0404527D0484525D050451C
:1035C00023D06349884220D06149183188421CD0F9
:1035D0005F493031884218D05E49884215D0904208
:1035E00013D05C49303188420FD098420DD05949F0
:1035F0006031884209D057497831884205D060450A
:1036000003D05449A831884206D100E07CE001682B
:1036100021F00801016003E0016821F0040101606C
:10362000216C002970D004B02046BDE8F05F084747
:103630004FF0020E0EFA0BFE1EEA010FCDF808E065
:1036400063D05FEA867E60D502986860300411D549
:10365000F00307D4616C002978D004B02046BDE89F
:10366000F05F0847E16B002970D004B02046BDE848
:10367000F05F0847B0063FD42068B8422DD03449E7
:103680006039884229D0404527D0484525D050454B
:1036900023D02F49884220D02D49183188421CD090
:1036A0002B493031884218D02A49884215D090429F
:1036B00013D02849303188420FD098420DD0254987
:1036C0006031884209D023497831884205D060456D
:1036D00003D02049A831884204D1016821F01401A7
:1036E000016003E0016821F00A010160012084F813
:1036F0003500002084F83400E16B002926D004B0A6
:103700002046BDE8F05F084720E0082202FA0BF2ED
:103710000A421BD0310719D5016821F00E01016062
:1037200094F85C0000F01F01012000FA01F16960CB
:10373000606584F83500002084F83400E16C0029CD
:1037400004D004B02046BDE8F05F0847BDE8FF9F05
:103750008800024010040240085402582DE9F05F2E
:10376000044601F043FA0646002C7DD0F24F0222B7
:10377000DFF8C4830025DFF8C093DFF8BCA308F1AD
:103780003008DFF8B4B309F1480920680AF1600A8B
:103790000BF1780BB84232D0E749183188422ED06D
:1037A00040452CD048452AD0504528D0584526D0F1
:1037B000E1499031884222D0DF49A83188421ED0A9
:1037C000DE4988421BD0DD491831884217D0DB49D9
:1037D0003031884213D0D949483188420FD0D74977
:1037E000603188420BD0D5497831884207D0D3491F
:1037F0009031884203D0D149A83188427ED184F8E3
:10380000352084F83450B84234D0CB49183188423E
:1038100030D040452ED048452CD050452AD0584570
:1038200028D0C5499031884224D0C349A831884264
:1038300020D0C24988421DD0C0491831884219D0D1
:10384000BE493031884215D0BC494831884211D038
:10385000BA49603188420DD0B8497831884209D0E0
:10386000B6499031884200E009E003D0B349A8315D
:10387000884207D1016821F00101016013E00120B5
:10388000BDE8F09F016821F0010101600BE001F04B
:10389000ADF9801B052806D920206065032084F837
:1038A00035000120ECE720680068C007EFD12268EE
:1038B0001168A3480140D4E902031843D4E904364F
:1038C00033431843A3691843E3691843236A184331
:1038D0000843616A042903D1D4E90B13194308434F
:1038E0006168A1F12903052B0DD9163B032B0AD9D9
:1038F000083B012B07D9083B032B00E02AE002D943
:103900007439032901D840F48010106020684069A0
:1039100020F00701606A40EA010604280DD1A06A80
:103920000643E06A48B12046FEF7F6FB28B1402086
:103930006065012084F83500A2E7206846612046D2
:10394000FEF7FCFA94F85C1001F01F023F21914051
:10395000816066E07B4988421BD07A4B14339842E1
:1039600017D0784B2833984213D0764B3C3398428B
:103970000FD0744B503398420BD0724B6433984243
:1039800007D0704B7833984203D06E4B8C339842FB
:103990007ED1884211D06B49143188420DD06949DB
:1039A0002831884209D067493C31884205D06549B1
:1039B0005031884201D06349643184F8352084F85D
:1039C0003450026860490A40A16840297ED08029AD
:1039D0007DD00021E36841EAD301236941EAD301A4
:1039E000636941EAD301A36941EAD301E36941EA8A
:1039F000D301236A41EA1311114301605149206840
:103A0000494208441421B0FBF1F08000E0652046F3
:103A1000FEF794FA94F85C1001F01F020121914026
:103A200041602068B84256D043491831884252D08C
:103A3000404550D048454ED050454CD058454AD0CE
:103A40003D499031884246D03B49A831884242D016
:103A50003A4988423FD03949183188423BD03749EA
:103A60003031884237D035494831884233D03349E4
:103A7000603188422FD03149783188422BD02F498C
:103A80009031884227D02D49A831884223D000E0C8
:103A90002DE02C4988421ED02A49143188421AD080
:103AA00028492831884216D026493C31884212D014
:103AB0002449503188420ED02249643188420AD0CC
:103AC00020497831884206D01E4901E00AE00BE027
:103AD0008C31884229D12046FEF790FAA0688028D0
:103AE0000CD00CE0102175E74FF4804172E74020C4
:103AF0006065032084F835000120C1E66560216E11
:103B000020790860D4E9191048606068401E0728D1
:103B100008D82046FEF7C2FAE06E0560D4E91C1012
:103B2000486002E0E566256765676565012084F801
:103B300035000020A4E600001000024010040240FE
:103B40003F8010FE085402580F00FEFF2DE9F84F89
:103B5000044600200090002C15D094F83400012871
:103B600013D0012084F8340094F835500020012D42
:103B70000DD04FF40061616584F83400012000909D
:103B80000098BDE8F88F0120FBE70220F9E7022545
:103B900084F835506065A54DA44EA44F1835DFF864
:103BA0008CC23036DFF884824837DFF88092DFF845
:103BB0007CA208F16008DFF874B209F17809206886
:103BC0000AF1900A0BF1A80B60453BD0A84239D00E
:103BD000B04237D0B84235D0404533D0484531D0D7
:103BE00050452FD058452DD0DFF844C2604529D02C
:103BF000DFF83CC20CF1180C604523D0DFF830C26E
:103C00000CF1300C60451DD0DFF824C20CF1480CDB
:103C1000604517D0DFF818C20CF1600C604511D078
:103C2000DFF80CC20CF1780C60450BD0DFF800C255
:103C30000CF1900C604505D0DFF8F4C10CF1A80C34
:103C4000604506D1D0F800C02CF0010CC0F800C0CF
:103C500005E0D0F800C02CF0010CC0F800C02046F0
:103C6000FEF796FA7149206888422CD0A8422AD0E3
:103C7000B04228D0B84226D0404524D0484522D072
:103C8000504520D058451ED0694A90421BD0684A02
:103C90001832904217D0664A3032904213D0644AAC
:103CA000483290420FD0624A603290420BD0604A54
:103CB0007832904207D05E4A9032904203D05C4AFC
:103CC000A83290420DD1026822F01E0242F0160284
:103CD0000260206C90B12068026842F00802026025
:103CE0000CE0026822F00E0242F00A020260206C30
:103CF00020B12068026842F0040202602068884215
:103D00004BD0A84249D0B04247D0B84245D04045F8
:103D100043D0484541D050453FD058453DD0444A16
:103D200090423AD0424A1832904236D0404A30321D
:103D3000904232D03E4A483290422ED03C4A6032C5
:103D400090422AD03A4A7832904226D0384A90326D
:103D5000904222D0364AA83290421ED0354A904234
:103D60001BD0344A1432904217D0324A2832904243
:103D700013D0304A3C3290420FD02E4A50329042FB
:103D80000BD02C4A6432904207D02A4A78329042B3
:103D900003D0284A8C3290420DD1206E0268D203A3
:103DA00003D5026842F480720260E06E18B10268C6
:103DB00042F480720260206888422CD0A8422AD047
:103DC000B04228D0B84226D0404524D0484522D021
:103DD000504520D058451ED0154988421BD0144963
:103DE0001831884217D012493031884213D0104917
:103DF000483188420FD00E49603188420BD00C49BF
:103E00007831884207D00A499031884203D0084966
:103E1000A831884204D1016841F001010160AFE698
:103E2000016841F001010160AAE6000010000240B3
:103E3000100402400854025870B5044600F0D6FE43
:103E40000546601C02D004480078044400F0CEFE11
:103E5000401BA042FAD370BD1C00002410B590F89E
:103E60009830012B08D0022B06D050F89C1F41F04F
:103E700002010160012010BD03689C6D0C4204D159
:103E8000DC6D44F00104DC6505E09C6D31EA04045E
:103E90001CD00324DC658B0504D5036853F8E04F80
:103EA00014431C604B0504D5036853F8E44F1443D6
:103EB0001C600068426D084B0B401A43426507487E
:103EC000026842EA91710160002010BDDC6D44F08F
:103ED0000204DC65DFE70000FFFFCF3F14A80040CD
:103EE00070B5044694F89800022806D054F89C0F48
:103EF00040F008002060012070BD2068D0F8C0307C
:103F000013F07C5F0AD0D0F8C4309B020DD554F872
:103F10009C0F40F400702060012070BD54F89C0F8D
:103F200040F020002060012070BDD0F8C400C0F334
:103F3000044520462B46FEF7EBFC21680120A840F3
:103F4000C1F8D000C4F89400002070BD704710B5CF
:103F500090F89820012A08D0022A06D050F89C1F19
:103F600041F002010160012010BDCA680B688BB1ED
:103F7000072A0B6943EA42732BD00C7A4A6942EA5A
:103F800084724968006F00EBC100036042604FF02B
:103F9000000010BD072A10D00C7A4FEAC2624B69AC
:103FA00043EA84730C8A42EA044243EA0203496802
:103FB000C06E00EB81000360E9E70B8A4FF06054AC
:103FC0008A6942EA0343CA6944EA022243EA0203D5
:103FD000EDE78A69D5E730B5039C90F89850012D3C
:103FE00006D050F89C1F41F004010160012030BD53
:103FF0000068090141EA820141EA43012143C0F816
:104000008010002030BD704770470000F0B50024DC
:1040100090F89850022D06D050F89C1F41F00801EE
:1040200001600120F0BD40294FF000460BD041292E
:1040300036D0056D8D4260D850F89C1F41F02001AC
:1040400001600120F0BD0568D5F8A07017F4FE0FDF
:1040500018D0D5F8A4707F061BD0D5F8A470FF0146
:1040600005D5D5F8A070B6EBD77F00D10124D5F8DF
:10407000A450C5F305252C44456C466F654306EBFB
:1040800085063FE050F89C1F41F0200101600120AF
:10409000F0BD50F89C1F41F4807101600120F0BD1B
:1040A0000568D5F8B07017F4FE0F18D0D5F8B470C5
:1040B0007F061BD0D5F8B470FF0105D5D5F8B070D8
:1040C000B6EBD77F00D10124D5F8B450C5F3052550
:1040D0002C44C56C866F654306EB850612E050F8EC
:1040E0009C1F41F0200101600120F0BD50F89C1F91
:1040F00041F4807101600120F0BD456DC66F4D43F4
:1041000006EB8506356805F0804555602DB33568AA
:1041100025F060451560356805F0005595603568F7
:1041200005F000451561B588ADB2D561756805F437
:104130007025D560756805F480155561756805F4BE
:10414000001595617568C5F30665156275680836D2
:10415000ED0F55620025184F09E03568C5F38A4513
:104160001560D8E716F805C003F805C06D1CD2F835
:104170000CC007EB1C4C9CF800C0AC45F2D84029A1
:1041800009D041290BD0012220290CD200688A4095
:10419000C0F898200DE00068C0F8A84009E0006869
:1041A000C0F8B84005E0006801F01F018A40C0F87F
:1041B0009C200020F0BD000000EA000870470000CD
:1041C0002DE9FE4F0446B64F38688007391D09684F
:1041D00000EA817002902068016D01F47041D0F80E
:1041E00054A00AEA010A016D01F00F01D0F854B0A1
:1041F0000BEA010B016D01F0F001426D0A400192E2
:10420000016D01F07151D0F8548008EA0108016D88
:1042100001F06071426D0A400092416D056D4FF0F2
:104220000009CE43F10509D4E943C90506D4B915FF
:104230000165C7F800902046FFF7C0FF700510D455
:10424000E84340050DD42068D0F8DC20D0F8E41015
:1042500011404FF480620265C7F80090204600F0DC
:10426000AFFB029858B18F49029808402168086551
:104270000298800F386002992046FFF767FEBAF176
:10428000000F0BD0216887480AEA000008654FEA52
:104290009A7038605146204600F094FBBBF1000F45
:1042A0000BD021687F480BEA000008654FEA9B703D
:1042B00038605946204600F0D3FA019858B1794940
:1042C00001980840216808650198800F38600199BD
:1042D000204600F00DFB30050BD4E843000508D460
:1042E00021684FF400600865C7F80090204600F090
:1042F0006AFBB00510D4E84380050DD42068D0F8DF
:10430000D820D0F8E01011404FF400720265C7F8D1
:104310000090204600F055FB30030BD4E843000327
:1043200008D421684FF400200865C7F800902046A3
:1043300000F094FAF0030BD4E843C00308D42168DA
:104340004FF480300865C7F80090204600F037FB36
:1043500070030BD4E843400308D421684FF4802055
:104360000865C7F80090204600F028FBB0030ED483
:10437000E84380030BD421684FF400300865C7F888
:104380000090D4F89C0040F08000C4F89C00009895
:1043900058B1444900980840216808650098800F8A
:1043A000386000992046FFF72FFEB8F1000F0DD0BE
:1043B00021683C4808EA000008654FEA98703860B8
:1043C000D4F89C0040EA0800C4F89C0036492068F4
:1043D00088425BD160688168890757D0016A01F023
:1043E0000F02416A1140026A02F03002476A174028
:1043F000026A02F4C072D0F8248008EA0208026A55
:1044000002F4FC42456A1540026A02F4F022466A50
:104410001640D0F82490D0F820A019B101622046AF
:1044200000F0C9FA2FB1606807623946204600F0F3
:10443000C4FA6FEA090040060ED46FEA0A0040068B
:104440000AD46068C16B090CC26B02F03F024023C2
:104450000362204600F0B0FAB8F1000F06D06068A1
:10446000C0F820804146204600F0A4FA35B16068CB
:104470000562D4F89C002843C4F89C0036B16068FB
:104480000662D4F89C003043C4F89C00D4F89C0029
:10449000002802D02046FFF7B6FDBDE8FE8F0000E1
:1044A00010A80040FFFFCF3F00A000402DE9F043DF
:1044B00093B004464C2295496846FBF7B6FF6CB1B1
:1044C000934F2068B84202D100F5807060604FF4CD
:1044D000407994F89800002620B108E0012013B03C
:1044E000BDE8F08384F89960204600F013F9206855
:1044F000816921F01001816100F078FB05464FF0E1
:1045000003080DE000F072FB401B0A2808D954F89C
:104510009C0F40F00100206004F8048C0120DEE7CD
:10452000206880690007EDD42068816941F00101AD
:10453000816100F05BFB05460DE000F057FB401B7E
:104540000A2808D954F89C0F40F00100206004F8B4
:10455000048C0120C3E720688069C007EDD0206883
:10456000816941F002018161207C012839D02068F5
:10457000816941F040018161607C012837D0206869
:10458000816921F480418161A07C012835D02068B7
:10459000816941F48051816120688169A26821F4B8
:1045A0004071114381612068816921F0A40181611A
:1045B0002068016921F010010161E068012822D022
:1045C00030B302282BD02068816941F080018161DD
:1045D0002068016941F010010161E068032818D0EA
:1045E00022E02068816921F040018161C4E72068F0
:1045F000816941F480418161C6E72068816921F4C5
:1046000080518161C8E72068816941F004018161BE
:104610000AE02068816941F02001816104E020689E
:10462000816941F020018161207E401E4106E069E0
:10463000401E41EA0020216A491E0843A18A491E02
:1046400040EA01402168C861A06848450FD1E16A8D
:10465000A06A491E401E40EA0121206B401E41EA2B
:104660000011A08C401E41EA00402168C860206E05
:1046700028B1206850F8C01F626E11430160D4E970
:104680001701C842694609D0206850F8C82FA36EA8
:1046900022F0070251F823301A430260206C48B11F
:1046A000206850F8BC2F636C22F0070251F82330C9
:1046B0001A430260A06C50B1206850F8BC2FE36C24
:1046C00022F0700251F8233042EA03120260206D9A
:1046D00050B1206850F8BC2F636D22F4E06251F8AD
:1046E000231042EA012101602068B84204D16068C9
:1046F000816821F00301816044F8946FA660012075
:104700002071943C2046FEF72BF8E8E610EA0008FA
:1047100000A000402DE9F04186B00446142101A814
:10472000FBF79CFE474B002522680227464C4FF0C2
:10473000090CDFF80C8119680C3C434E4348491CB6
:10474000424527D11960012907D1316841F48071B0
:104750003160316801F480710091216841F00801F5
:104760002160216801F00801009103210191029765
:1047700003950495CDF814C001A900F025F9002295
:104780000621132000F0D6FA132000F0C5FA06B077
:10479000BDE8F081DFF8B880424526D119600129D3
:1047A00007D1306840F480703060306800F4807069
:1047B0000090206840F002002060206800F00200B5
:1047C000009060200190029703950495CDF814C0E5
:1047D00001A9204800F0F8F800220521142000F07B
:1047E000A9FA142000F098FAD1E7DFF86CC062450E
:1047F000CDD11960012907D1316841F48071316050
:10480000316801F480710091216841F00801216054
:10481000216801F0080100914FF440510191029785
:10482000039504950521059101A900F0CDF800221A
:1048300005219F2000F07EFA9F2000F06DFAA6E788
:1048400000A0004018000024EC440258000C02585C
:1048500000A400400004025800D40040704700004B
:1048600010B50446C80737D01C492068884233D1A8
:104870001B484021FBF7F2FD194B40212046A3F1D4
:104880002802FFF7C3FB16492839086803280DD012
:10489000042812D0772818D0B0F5017F1CD1CA683F
:1048A0002831BDE810400F4808F02EBECA68BDE8A8
:1048B00010400B490C4808F0C9BDCA680A48BDE859
:1048C000104007494C3008F0C1BDCA68BDE810402F
:1048D0000349064809F0EEBC10BD000000A00040EE
:1048E00030900024948A0024648900246409002400
:1048F00010B50446C8063CD51E492068884238D108
:104900001D484021FBF7AAFD1B4B41212046A3F186
:104910002802FFF77BFB18492839086803280ED0C6
:10492000042814D077281AD0A0F50070033820D1BD
:10493000CA682831BDE81040104808F0E5BDCA68D3
:104940000E48BDE810400C49E83808F07FBDCA6841
:104950000A48BDE8104008499C3808F077BD064871
:10496000903800F12801C268BDE81040044809F001
:10497000A1BC10BD00A4004098900024E48A00244B
:104980006409002490F89810012906D050F89C1F63
:1049900041F00401016001207047022180F8981065
:1049A00001688A6922F001028A610021C0F89C1026
:1049B00000207047704770477047704770477047D6
:1049C00070477047704770472DE9F84F0022784DC7
:1049D00003264FF001080F274FF0B04CE1E008FA32
:1049E00002F31C409A46002C7ED00B7903F003039F
:1049F000012B01D0022B1BD1D0F80890530006FAEE
:104A000003FB29EA0B09D1F80CB00BFA03FB4BEAC4
:104A1000090BC0F808B0436823EA0A0391F8049030
:104A2000C9F3001909FA02F949EA0309C0F8049028
:104A30000B79DB439B070ED0D0F80C90530006FA9D
:104A400003FA29EA0A09D1F808A00AFA03FA4AEA9D
:104A5000090AC0F80CA00B7903F00303022B14D150
:104A6000D30800EB8303D3F820A04FEA42794FEA42
:104A7000D96907FA09FB2AEA0B0AD1F810B00BFA38
:104A800009FB4BEA0A0BC3F820B0D0F800905300A2
:104A900006FA03FA29EA0A0991F804A00AF0030ABF
:104AA0000AFA03FA4AEA090AC0F800A04B6813F4AC
:104AB000403F75D03F4BD3F8009049F00209C3F84E
:104AC00000901B6803F00203009322F0030909F130
:104AD000B049D9F808B493074FEA137A07FA0AF3F2
:104AE0002BEA030B344B00E05AE0984201D100233B
:104AF00028E0324B984201D1012323E0304B984209
:104B000001D102231EE02F4B984201D1032319E06B
:104B10002D4B984201D1042314E02C4B984201D133
:104B200005230FE02A4B984201D106230AE0294BC6
:104B3000984201D1072305E0274B984201D1092370
:104B400000E00A2303FA0AF343EA0B03C9F8083426
:104B5000DCF80030A343D1F804905FEAC92900D5FE
:104B60002343CCF80030DCF80430A343D1F80490A0
:104B70005FEA892900D52343CCF804306B68A3434E
:104B8000D1F804905FEA893900D523436B602B6824
:104B9000A343D1F804905FEAC93900D523432B60C1
:104BA000521C0C6834FA02F37FF419AFBDE8F88F99
:104BB00080000058F44402580000025800040258D3
:104BC00000080258000C0258001002580014025845
:104BD00000180258001C025800240258002A01D074
:104BE0008161704709048161704700000148806855
:104BF000704700001C0000240248816802781144BC
:104C0000816070471C00002410B5032000F0B2F84A
:104C100001F03CF90F490A68C2F303230E4AD35C42
:104C200003F01F03D840096801F00F01515C0B4AE3
:104C300001F01F0120FA01F11160094908600F20FD
:104C400000F010F808B1012010BD00F053F800206A
:104C500010BD00001844025884EA00082C0000240B
:104C60002800002410B58AB00446102C30D200224F
:104C700021461C2000F05EF81C2000F04DF8194879
:104C800004601948016841F001010160006800F00A
:104C90000100009001A902A801F082F80798C8B1AC
:104CA00001F0D0F840001149B0FBF1F1491E104865
:104CB0004FF08042026040F2E732C2604160002162
:104CC0000161816002F0C2F838B101200AB010BD64
:104CD0000120FBE701F0B6F8E5E7054802F0DEF851
:104CE000F4E7000020000024E844025840420F008E
:104CF000CC08002482B00748016841F0020101603D
:104D0000006800F00200019000220F21901E02B006
:104D100000F010B8F4440258002809DB012100F02B
:104D20001F0291404009800000F1E020C0F800110E
:104D300070470000F0B40D460D4B1B68C3F302230F
:104D4000C3F10704042C00D90424191D072901D23A
:104D5000002300E0DB1E012606FA04F1491E29406B
:104D600099409E40761E16403143F0BC06F0C3BD0C
:104D70000CED00E000F00701054A10684FF6FF0354
:104D8000184040EA012003490843106070470000C2
:104D90000CED00E00000FA0570B514490A68D24332
:104DA000520708D5096801F00701814201D00120AE
:104DB00070BD002070BD0A6822F0070202430A603D
:104DC000FFF714FF0446094D4FF47A76083D06E0DC
:104DD000FFF70CFF001BB04201D9012070BD28680D
:104DE000C0438004F4D4002070BD00000C48025879
:104DF00010B501F005F805490968054AC1F302112B
:104E0000515C01F01F01C84010BD00002044025851
:104E100084EA000810B569490A6802F003020968CB
:104E2000C1F30531654B1B1D1B68C3F30013634CB5
:104E300014342468C4F3CC0414FB03F300EE103ADA
:104E4000B8EE400A002971D09FED5D1A5B4BF7EE7A
:104E5000000A1033F2B39FED5B2A012A7FD0022AA9
:104E60007CD001EE901A1968F8EE611AC2EE212A80
:104E7000C1F3080101EE901AF8EE611A40EE011A32
:104E800031EEA00A22EE800A1968C1F3462101EE34
:104E9000101AB8EE411A31EE201AC0EE011ABCEE1B
:104EA000E11A80ED001A1968C1F3064101EE101AEB
:104EB000B8EE411A31EE201AC0EE011ABCEEE11A2A
:104EC00080ED011A1968C1F3066101EE101AB8EEFF
:104ED000411A00E008E071EE200A80EE201ABCEED4
:104EE000C10A80ED020A10BD344A283A1468A406AB
:104EF0001ED51268C2F3C104334AE24001EE902A83
:104F0000F8EE612A01EE901A1968F8EE611A82EE45
:104F1000A12AC1F3080101EE901AF8EE611A40EEE1
:104F2000011A31EEA00A22EE000AADE741E016E0D8
:104F300001EE901ADFED252A1968F8EE611A82EE6B
:104F4000A12AC1F3080101EE901AF8EE611A40EEB1
:104F5000011A31EEA00A22EE000A95E713E001EEF5
:104F6000901A1968F8EE611AC2EE212AC1F30801FD
:104F700001EE901AF8EE611A40EE011A31EEA00A25
:104F800022EE800A80E701EE901ADFED112A1968FF
:104F9000F8EE611A82EEA12AC1F3080101EE901A1F
:104FA000F8EE611A40EE011A31EEA00A22EE000A74
:104FB0006AE7002101604160816010BD2844025809
:104FC000000000390024744A0090D0030024744C7F
:104FD000001BB74B10B569490A6802F00302096863
:104FE000C1F30551654B1B1D1B68C3F30023634CC4
:104FF0001C342468C4F3CC0414FB03F300EE103A11
:10500000B8EE400A002971D09FED5D1A5B4BF7EEB8
:10501000000A1833F2B39FED5B2A012A7FD0022ADF
:105020007CD001EE901A1968F8EE611AC2EE212ABE
:10503000C1F3080101EE901AF8EE611A40EE011A70
:1050400031EEA00A22EE800A1968C1F3462101EE72
:10505000101AB8EE411A31EE201AC0EE011ABCEE59
:10506000E11A80ED001A1968C1F3064101EE101A29
:10507000B8EE411A31EE201AC0EE011ABCEEE11A68
:1050800080ED011A1968C1F3066101EE101AB8EE3D
:10509000411A00E008E071EE200A80EE201ABCEE12
:1050A000C10A80ED020A10BD344A283A1468A406E9
:1050B0001ED51268C2F3C104334AE24001EE902AC1
:1050C000F8EE612A01EE901A1968F8EE611A82EE84
:1050D000A12AC1F3080101EE901AF8EE611A40EE20
:1050E000011A31EEA00A22EE000AADE741E016E017
:1050F00001EE901ADFED252A1968F8EE611A82EEAA
:10510000A12AC1F3080101EE901AF8EE611A40EEEF
:10511000011A31EEA00A22EE000A95E713E001EE33
:10512000901A1968F8EE611AC2EE212AC1F308013B
:1051300001EE901AF8EE611A40EE011A31EEA00A63
:1051400022EE800A80E701EE901ADFED112A19683D
:10515000F8EE611A82EEA12AC1F3080101EE901A5D
:10516000F8EE611A40EE011A31EEA00A22EE000AB2
:105170006AE7002101604160816010BD2844025847
:10518000000000390024744A0090D0030024744CBD
:10519000001BB74B2DE9FC5F044600250026F94FA4
:1051A0002068DFF8E493C043010104F10800019096
:1051B00004F1280000900DD4606EB8B1B0F5801FE6
:1051C00019D0B0F5001F1CD0B0F5401F00D001254C
:1051D000EDB12E462088C043C00535D4A06D05280A
:1051E0002FD2DFE800F01D22282F2F00386840F46E
:1051F00000303860ECE70198022104F01BFC054602
:10520000E6E70098022104F0A7FC0546E0E7D9F89C
:105210000000616E20F440100843C9F80000D9E78F
:10522000386840F4003038600CE00198002104F048
:1052300001FC054606E00098002104F08DFC0546BF
:1052400000E00125A5B12E462088DFF84083C04349
:1052500040051FD4D4F8A400B0F5C00F18D010DC5E
:1052600050B3B0F5001F2CD0B0F5800F0FD12EE059
:10527000D9F80000A16D20F007000843C9F800002C
:10528000E2E7B0F5000F03D0B0F5200F00D0012504
:105290001DB32E462088C043000531D4D4F8A800A1
:1052A000B0F1407F2AD022DCF0B3B0F1807F4BD048
:1052B000B0F1007F21D14DE0386840F40030386013
:1052C000E6E70198002104F0B5FB0546E0E7009809
:1052D000002104F041FC0546DAE7D8F80000D4F8D4
:1052E000A41020F460000843C8F80000D2E7B0F131
:1052F000806F03D0B0F1A06F00D0012585B32E469A
:105300002068C04380010AD4E06C30B1102832D04C
:10531000202836D0302800D001258DB32E46208895
:10532000C043C00446D400E009E0E06DB0F5005F82
:105330005CD036DCA0B3B0F5805F38D150E038687F
:1053400040F400303860D9E70198002104F072FB86
:105350000546D3E70098002104F0FEFB0546CDE7A3
:10536000FFE7D8F80000D4F8A81020F0E060084368
:10537000C8F80000C4E7386840F400303860CCE773
:1053800005E00198022104F055FB0546C5E77E487B
:10539000001F0168E26C21F0300111430160BEE79B
:1053A00019E0B0F5405F03D0B0F5804F00D0012583
:1053B00015B32E462088C04380042FD4206EB0F54C
:1053C000403F29D021DC38B3B0F5803F38D0B0F56C
:1053D000003F20D13AE0386840F400303860E7E719
:1053E0000198002104F026FB0546E1E70098002122
:1053F00004F0B2FB0546DBE7D9F80000E16D20F4CC
:10540000E0400843C9F80000D4E7B0F5802F03D08E
:10541000B0F5A02F00D00125F5B12E462088C0435D
:1054200040042BD4D4F8AC00B0F1405F24D01CDC95
:1054300010B3B0F1805F4FD0B0F1005F1BD152E0EC
:105440000198012104F0F6FA0546E5E700980121EC
:1054500004F082FB0546DFE7D9F80000216E20F456
:10546000E0200843C9F80000D8E7B0F1804F03D02E
:10547000B0F1A04F00D00125A5B32E462088C0432F
:1054800000040AD4E06E30B1B0F1805F3DD0B0F1DD
:10549000005F3FD00125B5B32E462068C043C00150
:1054A0000AD4A06C30B1012843D0022846D003288A
:1054B00000D0012545B32E462068C04340025AD48F
:1054C000DFF8CCB0DBF8000040F48070CBF80000CF
:1054D000FFF78CFB824648E00198012104F0AAFA0C
:1054E0000546C9E705E00098012104F035FB0546B3
:1054F000C2E7D8F80000D4F8AC1020F0E040084330
:10550000C8F80000BAE70BE01EE0386840F400304D
:105510003860C0E70198012104F08CFA0546BAE72B
:10552000D9F80000E16E20F040500843C9F80000AF
:10553000B3E7386840F400303860BBE701980221D7
:1055400004F078FA0546B5E70F48001F0168A26C21
:1055500021F0030111430160AEE7FFF747FBA0EB29
:105560000A00642801D9032503E0DBF80000C00528
:10557000F3D58DB12E462078DFF818A0C043C007C0
:1055800063D073E02C4402585044025858440258E7
:105590000048025854440258DFF850B4DBF80000C9
:1055A000B4F8B01000F4407001F44071884211D09A
:1055B000DBF8000020F44070DBF8001041F480318B
:1055C000CBF80010DBF8001021F48031CBF800108C
:1055D000CBF80000D4F8B000B0F5807F11D1FFF710
:1055E00005FB824609E0FFF701FBA0EB0A0141F24F
:1055F0008830814201D9032503E0DBF800008007F1
:10560000F1D50DB12E46B6E7D4F8B000C0F30121B4
:1056100003290FD0F5486038016821F47C510160FE
:10562000DBF80000B4F8B010C1F30B010843CBF86D
:105630000000A0E7ED4960390A68ED4B22F47C5286
:10564000184042EA10100860EAE7A06F18280BD053
:1056500005DC48B1082815D0102804D118E020280E
:1056600002D0282800D00125C5B12E462078C0439D
:1056700080072BD4606F062825D2DFE800F02518BC
:105680001E2525250198012104F0D4F90546EBE7F4
:105690000098012104F060FA0546E5E7DAF8000019
:1056A000A16F20F038000843CAF80000DEE7019837
:1056B000012104F0BFF9054606E00098012104F03D
:1056C0004BFA054600E001256DB12E462078C04317
:1056D000400720D4D4F89000062819D2DFE800F063
:1056E000190C12191919DAF80000616F20F007007F
:1056F0000843CAF80000E9E70198012104F09AF98B
:10570000054606E00098012104F026FA054600E06F
:10571000012595B12E462078C043800620D4D4F8C8
:105720008C00B0F1405F19D011DCB8B1B0F1805FEE
:1057300028D0B0F1005F10D12AE0D8F80000D4F8EA
:10574000901020F007000843C8F80000E3E7B0F12C
:10575000804F03D0B0F1A04F00D00125F5B12E4607
:105760002078C04340062CD4D4F89800B0F5406FA0
:1057700025D01DDC18B3B0F5806F34D0B0F5006FC4
:105780001CD136E00198002104F054F90546E5E704
:105790000098022104F0E0F90546DFE7DAF800009E
:1057A000D4F88C1020F0E0400843CAF80000D7E796
:1057B000B0F5805F03D0B0F5A05F00D00125F5B152
:1057C0002E462078C04300062CD4D4F89C00B0F5B7
:1057D000C04F25D01DDC18B3B0F5005F2CD0B0F55C
:1057E000804F1CD12EE00198002104F023F90546DA
:1057F000E5E70098022104F0AFF90546DFE7D8F8A5
:105800000000D4F8981020F4E0500843C8F80000D5
:10581000D7E7B0F5004F03D0B0F5204F00D00125F9
:10582000B5B12E462078C04300072AD4D4F88000B2
:10583000B0F5805F16D01BE00198002104F0FAF863
:105840000546EDE70098022104F086F90546E7E7F2
:10585000D8F80000D4F89C1020F460400843C8F841
:105860000000DFE70098022104F076F900B101267C
:10587000DAF80000D4F8801020F440500843CAF849
:1058800000002078C043C00613D4D4F89400B0F5CB
:10589000807F05D10098022104F05EF900B1012655
:1058A000D8F80000D4F8941020F440700843C8F8E9
:1058B00000002068C04300030BD4D4F8A000E8B374
:1058C000B0F5803F7DD0B0F5003F00D00125B5B3E5
:1058D0002E462068C04340030DD4D4F88400B0F5B0
:1058E000801F70D0B0F5001F6ED0B0F5401F00D003
:1058F00001252DB32E462068C043C00307D4206D78
:10590000F0B3B0F5803F75D00125D5B32E462068A1
:10591000C043800005D40098022104F01DF900B1B5
:1059200001262068C043800311D4E06F68B1B0F550
:10593000807F76D0B0F5007F07D002E05BE066E0C4
:105940007BE0B0F5407F00D00125DDB32E46206816
:10595000C043C00207D4D9F80000216F20F00040F6
:105960000843C9F800002068C043800207D4D9F872
:105970000000A16E20F080700843C9F8000001E02B
:1059800065E06FE02068C04340000AD417486038E3
:10599000016821F4004101600168D4F8B42011438A
:1059A00001602068C04307D4104824380168626D44
:1059B00021F04051114301602068C04300020DD422
:1059C00003E01EE05BE02DE031E0DAF80000D4F8FF
:1059D000881020F440000843CAF800002079002510
:1059E000C04300F00100284352D057E070440258F1
:1059F000FFFCFF0F30E00198002104F01BF8054682
:105A000065E70098022104F0A7F805465FE7D8F89B
:105A10000000D4F8A01020F440300843C8F800007B
:105A200057E727E0386840F40030386061E70098B5
:105A3000012104F091F805465BE7DAF80000D4F89C
:105A4000841020F440100843CAF8000053E7386877
:105A500040F40030386058E70198022103F0EAFF73
:105A6000054652E72E480168226D21F4803111432A
:105A700001604CE7386840F40030386065E7DAF8D8
:105A80000000E16F20F440700843CAF800005EE7B0
:105A90000198002103F0CEFF00B106462079C043F3
:105AA00000F00200284305D10198012103F0C2FF54
:105AB00000B106462079C04300F00400284305D118
:105AC0000198022103F0B6FF00B106462079C043D9
:105AD00000F00800284305D10098002104F03CF8AC
